{
  "contractName": "DataWipingCertificate",
  "abi": [
    {
      "inputs": [],
      "stateMutability": "nonpayable",
      "type": "constructor"
    },
    {
      "anonymous": false,
      "inputs": [
        {
          "indexed": true,
          "internalType": "string",
          "name": "certificateId",
          "type": "string"
        },
        {
          "indexed": false,
          "internalType": "string",
          "name": "deviceSerial",
          "type": "string"
        },
        {
          "indexed": false,
          "internalType": "string",
          "name": "ipfsHash",
          "type": "string"
        },
        {
          "indexed": true,
          "internalType": "address",
          "name": "issuer",
          "type": "address"
        },
        {
          "indexed": false,
          "internalType": "uint256",
          "name": "timestamp",
          "type": "uint256"
        }
      ],
      "name": "CertificateIssued",
      "type": "event"
    },
    {
      "anonymous": false,
      "inputs": [
        {
          "indexed": true,
          "internalType": "string",
          "name": "certificateId",
          "type": "string"
        },
        {
          "indexed": true,
          "internalType": "address",
          "name": "revoker",
          "type": "address"
        },
        {
          "indexed": false,
          "internalType": "uint256",
          "name": "timestamp",
          "type": "uint256"
        }
      ],
      "name": "CertificateRevoked",
      "type": "event"
    },
    {
      "inputs": [
        {
          "internalType": "address",
          "name": "",
          "type": "address"
        }
      ],
      "name": "authorizedIssuers",
      "outputs": [
        {
          "internalType": "bool",
          "name": "",
          "type": "bool"
        }
      ],
      "stateMutability": "view",
      "type": "function",
      "constant": true
    },
    {
      "inputs": [
        {
          "internalType": "uint256",
          "name": "",
          "type": "uint256"
        }
      ],
      "name": "certificateIds",
      "outputs": [
        {
          "internalType": "string",
          "name": "",
          "type": "string"
        }
      ],
      "stateMutability": "view",
      "type": "function",
      "constant": true
    },
    {
      "inputs": [
        {
          "internalType": "string",
          "name": "",
          "type": "string"
        }
      ],
      "name": "certificates",
      "outputs": [
        {
          "internalType": "string",
          "name": "certificateId",
          "type": "string"
        },
        {
          "internalType": "string",
          "name": "devicePath",
          "type": "string"
        },
        {
          "internalType": "string",
          "name": "deviceModel",
          "type": "string"
        },
        {
          "internalType": "string",
          "name": "deviceSerial",
          "type": "string"
        },
        {
          "internalType": "string",
          "name": "wipeMethod",
          "type": "string"
        },
        {
          "internalType": "string",
          "name": "timestamp",
          "type": "string"
        },
        {
          "internalType": "string",
          "name": "systemHostname",
          "type": "string"
        },
        {
          "internalType": "string",
          "name": "toolVersion",
          "type": "string"
        },
        {
          "internalType": "string",
          "name": "logHash",
          "type": "string"
        },
        {
          "internalType": "string",
          "name": "ipfsHash",
          "type": "string"
        },
        {
          "internalType": "address",
          "name": "issuer",
          "type": "address"
        },
        {
          "internalType": "uint256",
          "name": "createdAt",
          "type": "uint256"
        },
        {
          "internalType": "bool",
          "name": "isValid",
          "type": "bool"
        }
      ],
      "stateMutability": "view",
      "type": "function",
      "constant": true
    },
    {
      "inputs": [],
      "name": "owner",
      "outputs": [
        {
          "internalType": "address",
          "name": "",
          "type": "address"
        }
      ],
      "stateMutability": "view",
      "type": "function",
      "constant": true
    },
    {
      "inputs": [],
      "name": "totalCertificates",
      "outputs": [
        {
          "internalType": "uint256",
          "name": "",
          "type": "uint256"
        }
      ],
      "stateMutability": "view",
      "type": "function",
      "constant": true
    },
    {
      "inputs": [
        {
          "internalType": "string",
          "name": "_certificateId",
          "type": "string"
        },
        {
          "internalType": "string",
          "name": "_devicePath",
          "type": "string"
        },
        {
          "internalType": "string",
          "name": "_deviceModel",
          "type": "string"
        },
        {
          "internalType": "string",
          "name": "_deviceSerial",
          "type": "string"
        },
        {
          "internalType": "string",
          "name": "_wipeMethod",
          "type": "string"
        },
        {
          "internalType": "string",
          "name": "_timestamp",
          "type": "string"
        },
        {
          "internalType": "string",
          "name": "_systemHostname",
          "type": "string"
        },
        {
          "internalType": "string",
          "name": "_toolVersion",
          "type": "string"
        },
        {
          "internalType": "string",
          "name": "_logHash",
          "type": "string"
        },
        {
          "internalType": "string",
          "name": "_ipfsHash",
          "type": "string"
        }
      ],
      "name": "issueCertificate",
      "outputs": [],
      "stateMutability": "nonpayable",
      "type": "function"
    },
    {
      "inputs": [
        {
          "internalType": "string",
          "name": "_certificateId",
          "type": "string"
        }
      ],
      "name": "verifyCertificate",
      "outputs": [
        {
          "internalType": "bool",
          "name": "exists",
          "type": "bool"
        },
        {
          "internalType": "bool",
          "name": "isValid",
          "type": "bool"
        },
        {
          "internalType": "string",
          "name": "deviceSerial",
          "type": "string"
        },
        {
          "internalType": "string",
          "name": "wipeMethod",
          "type": "string"
        },
        {
          "internalType": "string",
          "name": "timestamp",
          "type": "string"
        },
        {
          "internalType": "string",
          "name": "ipfsHash",
          "type": "string"
        },
        {
          "internalType": "address",
          "name": "issuer",
          "type": "address"
        },
        {
          "internalType": "uint256",
          "name": "createdAt",
          "type": "uint256"
        }
      ],
      "stateMutability": "view",
      "type": "function",
      "constant": true
    },
    {
      "inputs": [
        {
          "internalType": "string",
          "name": "_certificateId",
          "type": "string"
        }
      ],
      "name": "getCertificateDetails",
      "outputs": [
        {
          "components": [
            {
              "internalType": "string",
              "name": "certificateId",
              "type": "string"
            },
            {
              "internalType": "string",
              "name": "devicePath",
              "type": "string"
            },
            {
              "internalType": "string",
              "name": "deviceModel",
              "type": "string"
            },
            {
              "internalType": "string",
              "name": "deviceSerial",
              "type": "string"
            },
            {
              "internalType": "string",
              "name": "wipeMethod",
              "type": "string"
            },
            {
              "internalType": "string",
              "name": "timestamp",
              "type": "string"
            },
            {
              "internalType": "string",
              "name": "systemHostname",
              "type": "string"
            },
            {
              "internalType": "string",
              "name": "toolVersion",
              "type": "string"
            },
            {
              "internalType": "string",
              "name": "logHash",
              "type": "string"
            },
            {
              "internalType": "string",
              "name": "ipfsHash",
              "type": "string"
            },
            {
              "internalType": "address",
              "name": "issuer",
              "type": "address"
            },
            {
              "internalType": "uint256",
              "name": "createdAt",
              "type": "uint256"
            },
            {
              "internalType": "bool",
              "name": "isValid",
              "type": "bool"
            }
          ],
          "internalType": "struct DataWipingCertificate.Certificate",
          "name": "",
          "type": "tuple"
        }
      ],
      "stateMutability": "view",
      "type": "function",
      "constant": true
    },
    {
      "inputs": [
        {
          "internalType": "string",
          "name": "_certificateId",
          "type": "string"
        }
      ],
      "name": "revokeCertificate",
      "outputs": [],
      "stateMutability": "nonpayable",
      "type": "function"
    },
    {
      "inputs": [
        {
          "internalType": "address",
          "name": "_issuer",
          "type": "address"
        }
      ],
      "name": "authorizeIssuer",
      "outputs": [],
      "stateMutability": "nonpayable",
      "type": "function"
    },
    {
      "inputs": [
        {
          "internalType": "address",
          "name": "_issuer",
          "type": "address"
        }
      ],
      "name": "revokeIssuer",
      "outputs": [],
      "stateMutability": "nonpayable",
      "type": "function"
    },
    {
      "inputs": [],
      "name": "getAllCertificates",
      "outputs": [
        {
          "internalType": "string[]",
          "name": "",
          "type": "string[]"
        }
      ],
      "stateMutability": "view",
      "type": "function",
      "constant": true
    },
    {
      "inputs": [
        {
          "internalType": "address",
          "name": "_issuer",
          "type": "address"
        }
      ],
      "name": "getCertificatesByIssuer",
      "outputs": [
        {
          "internalType": "string[]",
          "name": "",
          "type": "string[]"
        }
      ],
      "stateMutability": "view",
      "type": "function",
      "constant": true
    }
  ],
  "bytecode": "0x608080604052346100415733600160a060020a031960035416176003553360005260016020526040600020600160ff1982541617905561165c90816100478239f35b600080fdfe6080604052600436101561001257600080fd5b7c010000000000000000000000000000000000000000000000000000000060003504806262967914610fc15780630f9c774d14610f7657806313fcfe8014610ee7578063142e154214610d8f578063436693d514610d3d578063596b772f14610d1f5780638b23d87514610b6f5780638da5cb5b14610b485780638f2b91ea14610991578063f25fcfd61461054f578063f731fa0f1461050d578063fa433b361461020e5763feef6714146100c657600080fd5b34610209576020806003193601126102095760043590600160a060020a0380831680930361020957600092600092600254935b8481106101cd575061010a85611568565b946101186040519687611106565b808652610127601f1991611568565b0160005b8181106101be5750505060009160005b84811061015457604051806101508882611215565b0390f35b8282600a61016a6101648561105b565b50611580565b01541614610181575b61017c9061145e565b61013b565b926101b661017c9161019b6101958761105b565b50611128565b6101a5828a611613565b526101b08189611613565b5061145e565b939050610173565b6060878201840152820161012b565b8284600a6101dd6101648561105b565b015416146101f4575b6101ef9061145e565b6100f9565b946102016101ef9161145e565b9590506101e6565b600080fd5b346102095760203660031901126102095760043567ffffffffffffffff81116102095760206102446102e9923690600401611276565b6000610180604051610255816110e9565b606081526060858201526060604082015260608082015260606080820152606060a0820152606060c0820152606060e08201526060610100820152606061012082015282610140820152826101608201520152604051906102d8600b8251938581818601966102c581838a6111cd565b81016000815203019020015415156114a6565b6040519384928392519283916111cd565b8101600081520301902060ff600c60405192610304846110e9565b61030d81611128565b845261031b60018201611128565b602085015261032c60028201611128565b604085015261033d60038201611128565b606085015261034e60048201611128565b608085015261035f60058201611128565b60a085015261037060068201611128565b60c085015261038160078201611128565b60e085015261039260088201611128565b6101008501526103a460098201611128565b610120850152600160a060020a03600a82015416610140850152600b81015461016085015201541615156101808201526040518091602082526101806104df6104c76104af61049861048261046c61045661044061042a6104148c6101c08d51916101a0602082015201906111f0565b60208c01518d8203601f190160408f01526111f0565b60408b01518c8203601f190160608e01526111f0565b60608a01518b8203601f190160808d01526111f0565b60808901518a8203601f190160a08c01526111f0565b60a0880151898203601f190160c08b01526111f0565b60c0870151888203601f190160e08a01526111f0565b60e0860151878203601f19016101008901526111f0565b610100850151868203601f19016101208801526111f0565b610120840151858203601f19016101408701526111f0565b91600160a060020a036101408201511661016085015261016081015182850152015115156101a08301520390f35b3461020957602036600319011261020957600435600160a060020a038116809103610209576000526001602052602060ff604060002054166040519015158152f35b34610209576101403660031901126102095767ffffffffffffffff60043581811161020957610582903690600401611276565b6024358281116102095761059a903690600401611276565b90604435838111610209576105b3903690600401611276565b91606435848111610209576105cc903690600401611276565b93608435818111610209576105e5903690600401611276565b60a435828111610209576105fd903690600401611276565b60c43583811161020957610615903690600401611276565b9060e4358481116102095761062e903690600401611276565b926101043585811161020957610648903690600401611276565b946101243590811161020957610662903690600401611276565b9733600052600160205260ff604060002054168015610978575b610685906112cd565b87511561093157600b604051602081816106a58d838151938492016111cd565b8101600081520301902001546108ea57604051966106c2886110e9565b88885260208801526040870152886060870152608086015260a085015260c084015260e08301526101008201528261012082015233610140820152426101608201526001610180820152610180600c60405160208186516107268183858b016111cd565b8101600081520301902061073b845182611340565b61074c602085015160018301611340565b61075d604085015160028301611340565b61076e606085015160038301611340565b61077f608085015160048301611340565b61079060a085015160058301611340565b6107a160c085015160068301611340565b6107b260e085015160078301611340565b6107c461010085015160088301611340565b6107d661012085015160098301611340565b600a8101600160a060020a0361014086015116600160a060020a0319825416179055610160840151600b82015501910151151560ff80198354169116179055600254680100000000000000008110156108d157806001610839920160025561105b565b9190916108b857610885816108726108a9937f192735a5111e79a7ba3f6aa8a10d32ffaf5431653c4e9c4af8fa5034ca33359895611340565b61087d60045461145e565b600455611486565b9261089b604051956060875260608701906111f0565b9085820360208701526111f0565b924260408201528033940390a3005b60e060020a634e487b7102600052600060045260246000fd5b60e060020a634e487b7102600052604160045260246000fd5b606460405160e560020a62461bcd02815260206004820152601a60248201527f436572746966696361746520616c7265616479206578697374730000000000006044820152fd5b606460405160e560020a62461bcd02815260206004820152601e60248201527f43657274696669636174652049442063616e6e6f7420626520656d70747900006044820152fd5b50610685600160a060020a03600354163314905061067c565b346102095760203660031901126102095760043567ffffffffffffffff8111610209576109c2903690600401611276565b60405181818093516020819301916109d9926111cd565b8101600081520360200190206109ee81611128565b6109fa60018301611128565b91610a0760028201611128565b610a1360038301611128565b91610a2060048201611128565b610a2c60058301611128565b610a3860068401611128565b610a4460078501611128565b90610a5160088601611128565b92610a5e60098701611128565b94600a870154600160a060020a031698600b88015497600c015460ff16986040519c8d9c8d6101a09081815201610a94916111f0565b8d810360208f0152610aa5916111f0565b8c810360408e0152610ab6916111f0565b8b810360608d0152610ac7916111f0565b8a810360808c0152610ad8916111f0565b89810360a08b0152610ae9916111f0565b88810360c08a0152610afa916111f0565b87810360e0890152610b0b916111f0565b868103610100880152610b1d916111f0565b858103610120870152610b2f916111f0565b9261014085015261016084015215156101808301520390f35b34610209576000366003190112610209576020600160a060020a0360035416604051908152f35b346102095760203660031901126102095760043567ffffffffffffffff8111610209576020610ba5610bb8923690600401611276565b81604051938285809451938492016111cd565b81016000815203019020610180604051610bd1816110e9565b610bda83611128565b8152610be860018401611128565b6020820152610bf960028401611128565b6040820152610c0a60038401611128565b9260608201938452610d10610c2160048301611128565b9460808401958652610d02610c3860058501611128565b9660a08601978852610c4c60068601611128565b60c0870152610c5d60078601611128565b60e0870152610cf4610c7160088701611128565b98610100998a890152610ce6610c8960098901611128565b95866101208b0152600160a060020a03600a8a015416998a61014082015260ff600c600b8c01549b8c61016085015201541615159b8c9101525193519151936040519b8c9b8a15158d5260208d01528060408d01528b01906111f0565b9089820360608b01526111f0565b9087820360808901526111f0565b9085820360a08701526111f0565b9160c084015260e08301520390f35b34610209576000366003190112610209576020600454604051908152f35b3461020957602036600319011261020957600435600160a060020a0380821680920361020957610d72906003541633146114f4565b60005260016020526040600020600160ff19825416179055600080f35b34610209576020806003193601126102095760043567ffffffffffffffff811161020957610dc1903690600401611276565b336000526001825260ff604060002054168015610ece575b610de2906112cd565b604051610dfe600b8351928581818701956102c58183896111cd565b60ff600c60405185818651610e148183896111cd565b8101600081520301902001541615610e875790600c610e4284610e5a946040518093819287519283916111cd565b810160008152030190200160ff198154169055611486565b7f47958cdd7f8a583eead77c76bf001a8af1605d4494014e49cf9cffbe4f8240cd604051924284523393a3005b6064836040519060e560020a62461bcd0282526004820152601b60248201527f436572746966696361746520616c7265616479207265766f6b656400000000006044820152fd5b50610de2600160a060020a036003541633149050610dd9565b3461020957600036600319011261020957600254610f0481611568565b610f116040519182611106565b81815260209182820160026000527f405787fa12a823e0f2b7631cc41b3ba8828b3321ca811111fa75cd3aa3bb5ace936000915b838310610f5a57604051806101508782611215565b6001828192610f6889611128565b815201960192019194610f45565b346102095760203660031901126102095760043560025481101561020957610f9d9061105b565b6108b857610fad61015091611128565b6040519182916020835260208301906111f0565b3461020957602036600319011261020957600435600160a060020a038082168092036102095760035416610ff68133146114f4565b8114611014576000908152600160205260409020805460ff19169055005b606460405160e560020a62461bcd02815260206004820152601360248201527f43616e6e6f74207265766f6b65206f776e6572000000000000000000000000006044820152fd5b6002548110156110925760026000527f405787fa12a823e0f2b7631cc41b3ba8828b3321ca811111fa75cd3aa3bb5ace0190600090565b60e060020a634e487b7102600052603260045260246000fd5b90600160028304921680156110df575b60208310146110c657565b60e060020a634e487b7102600052602260045260246000fd5b91607f16916110bb565b6101a0810190811067ffffffffffffffff8211176108d157604052565b90601f8019910116810190811067ffffffffffffffff8211176108d157604052565b906040519182600082549261113c846110ab565b9081845260019485811690816000146111ab5750600114611168575b505061116692500383611106565b565b9093915060005260209081600020936000915b81831061119357505061116693508201013880611158565b8554888401850152948501948794509183019161117b565b91505061116694506020925060ff191682840152151581028201013880611158565b60005b8381106111e05750506000910152565b81810151838201526020016111d0565b90602091611209815180928185528580860191016111cd565b601f01601f1916010190565b602080820190808352835180925260408301928160408185028301019501936000915b8483106112485750505050505090565b9091929394958480611266600193603f198682030187528a516111f0565b9801930193019194939290611238565b81601f820112156102095780359067ffffffffffffffff82116108d157604051926112ab601f8401601f191660200185611106565b8284526020838301011161020957816000926020809301838601378301015290565b156112d457565b608460405160e560020a62461bcd028152602060048201526024808201527f4e6f7420617574686f72697a656420746f20697373756520636572746966696360448201527f61746573000000000000000000000000000000000000000000000000000000006064820152fd5b9080519067ffffffffffffffff82116108d157819061135f84546110ab565b601f811161140a575b5060209081601f84116001146113a45750600092611399575b5050816002029160080260020a600019041916179055565b015190503880611381565b60008681528181209450601f198616915b8282106113f257505091600293918560019694106113d7575b50505002019055565b01516008601f841602840a60001904191690553880806113ce565b806001869782949787015181550196019401906113b5565b9091506000848152602081206020601f86010481019260208610611454575b906020601f8796959493010401915b828110611446575050611368565b818155859450600101611438565b9092508290611429565b600019811461146d5760010190565b60e060020a634e487b7102600052601160045260246000fd5b61149e906020604051928284809451938492016111cd565b810103902090565b156114ad57565b606460405160e560020a62461bcd02815260206004820152601a60248201527f436572746966696361746520646f6573206e6f742065786973740000000000006044820152fd5b156114fb57565b608460405160e560020a62461bcd02815260206004820152602260248201527f4f6e6c79206f776e65722063616e20706572666f726d2074686973206163746960448201527f6f6e0000000000000000000000000000000000000000000000000000000000006064820152fd5b67ffffffffffffffff81116108d15760208091020190565b604051908160008254611592816110ab565b936001918083169081156115f757506001146115ba575b505060209250600081520301902090565b90915060005260209081600020906000915b8583106115e35750505050602091810138806115a9565b8054878401528694509183019181016115cc565b92505050602093915060ff1916825280151502810138806115a9565b805182101561109257602080920201019056fea2646970667358221220fe4bc6046ab6748e93f874041ddddd2bde07041856aebea1a040407f6c9999d264736f6c63430008130033",
  "immutableReferences": {},
  "source": "// SPDX-License-Identifier: MIT\r\npragma solidity ^0.8.19;\r\n\r\ncontract DataWipingCertificate {\r\n    struct Certificate {\r\n        string certificateId;\r\n        string devicePath;\r\n        string deviceModel;\r\n        string deviceSerial;\r\n        string wipeMethod;\r\n        string timestamp;\r\n        string systemHostname;\r\n        string toolVersion;\r\n        string logHash;\r\n        string ipfsHash;\r\n        address issuer;\r\n        uint256 createdAt;\r\n        bool isValid;\r\n    }\r\n    \r\n    mapping(string => Certificate) public certificates;\r\n    mapping(address => bool) public authorizedIssuers;\r\n    string[] public certificateIds;\r\n    \r\n    address public owner;\r\n    uint256 public totalCertificates;\r\n    \r\n    event CertificateIssued(\r\n        string indexed certificateId,\r\n        string deviceSerial,\r\n        string ipfsHash,\r\n        address indexed issuer,\r\n        uint256 timestamp\r\n    );\r\n    \r\n    event CertificateRevoked(\r\n        string indexed certificateId,\r\n        address indexed revoker,\r\n        uint256 timestamp\r\n    );\r\n    \r\n    modifier onlyOwner() {\r\n        require(msg.sender == owner, \"Only owner can perform this action\");\r\n        _;\r\n    }\r\n    \r\n    modifier onlyAuthorized() {\r\n        require(authorizedIssuers[msg.sender] || msg.sender == owner, \"Not authorized to issue certificates\");\r\n        _;\r\n    }\r\n    \r\n    constructor() {\r\n        owner = msg.sender;\r\n        authorizedIssuers[msg.sender] = true;\r\n    }\r\n    \r\n    function issueCertificate(\r\n        string memory _certificateId,\r\n        string memory _devicePath,\r\n        string memory _deviceModel,\r\n        string memory _deviceSerial,\r\n        string memory _wipeMethod,\r\n        string memory _timestamp,\r\n        string memory _systemHostname,\r\n        string memory _toolVersion,\r\n        string memory _logHash,\r\n        string memory _ipfsHash\r\n    ) public onlyAuthorized {\r\n        require(bytes(_certificateId).length > 0, \"Certificate ID cannot be empty\");\r\n        require(certificates[_certificateId].createdAt == 0, \"Certificate already exists\");\r\n        \r\n        certificates[_certificateId] = Certificate({\r\n            certificateId: _certificateId,\r\n            devicePath: _devicePath,\r\n            deviceModel: _deviceModel,\r\n            deviceSerial: _deviceSerial,\r\n            wipeMethod: _wipeMethod,\r\n            timestamp: _timestamp,\r\n            systemHostname: _systemHostname,\r\n            toolVersion: _toolVersion,\r\n            logHash: _logHash,\r\n            ipfsHash: _ipfsHash,\r\n            issuer: msg.sender,\r\n            createdAt: block.timestamp,\r\n            isValid: true\r\n        });\r\n        \r\n        certificateIds.push(_certificateId);\r\n        totalCertificates++;\r\n        \r\n        emit CertificateIssued(_certificateId, _deviceSerial, _ipfsHash, msg.sender, block.timestamp);\r\n    }\r\n    \r\n    function verifyCertificate(string memory _certificateId) public view returns (\r\n        bool exists,\r\n        bool isValid,\r\n        string memory deviceSerial,\r\n        string memory wipeMethod,\r\n        string memory timestamp,\r\n        string memory ipfsHash,\r\n        address issuer,\r\n        uint256 createdAt\r\n    ) {\r\n        Certificate memory cert = certificates[_certificateId];\r\n        \r\n        exists = cert.createdAt > 0;\r\n        isValid = cert.isValid;\r\n        deviceSerial = cert.deviceSerial;\r\n        wipeMethod = cert.wipeMethod;\r\n        timestamp = cert.timestamp;\r\n        ipfsHash = cert.ipfsHash;\r\n        issuer = cert.issuer;\r\n        createdAt = cert.createdAt;\r\n    }\r\n    \r\n    function getCertificateDetails(string memory _certificateId) public view returns (Certificate memory) {\r\n        require(certificates[_certificateId].createdAt > 0, \"Certificate does not exist\");\r\n        return certificates[_certificateId];\r\n    }\r\n    \r\n    function revokeCertificate(string memory _certificateId) public onlyAuthorized {\r\n        require(certificates[_certificateId].createdAt > 0, \"Certificate does not exist\");\r\n        require(certificates[_certificateId].isValid, \"Certificate already revoked\");\r\n        \r\n        certificates[_certificateId].isValid = false;\r\n        \r\n        emit CertificateRevoked(_certificateId, msg.sender, block.timestamp);\r\n    }\r\n    \r\n    function authorizeIssuer(address _issuer) public onlyOwner {\r\n        authorizedIssuers[_issuer] = true;\r\n    }\r\n    \r\n    function revokeIssuer(address _issuer) public onlyOwner {\r\n        require(_issuer != owner, \"Cannot revoke owner\");\r\n        authorizedIssuers[_issuer] = false;\r\n    }\r\n    \r\n    function getAllCertificates() public view returns (string[] memory) {\r\n        return certificateIds;\r\n    }\r\n    \r\n    function getCertificatesByIssuer(address _issuer) public view returns (string[] memory) {\r\n        uint256 count = 0;\r\n        \r\n        // Count certificates by issuer\r\n        for (uint256 i = 0; i < certificateIds.length; i++) {\r\n            if (certificates[certificateIds[i]].issuer == _issuer) {\r\n                count++;\r\n            }\r\n        }\r\n        \r\n        // Create result array\r\n        string[] memory result = new string[](count);\r\n        uint256 index = 0;\r\n        \r\n        for (uint256 i = 0; i < certificateIds.length; i++) {\r\n            if (certificates[certificateIds[i]].issuer == _issuer) {\r\n                result[index] = certificateIds[i];\r\n                index++;\r\n            }\r\n        }\r\n        \r\n        return result;\r\n    }\r\n}",
  "sourcePath": "D:\\Truffle\\contracts\\DataWipingCertificate.sol",
  "compiler": {
    "name": "solc",
    "version": "0.8.19+commit.7dd6d404.Emscripten.clang"
  },
  "schemaVersion": "3.4.16",
  "updatedAt": "2025-10-03T15:48:47.756Z",
  "networkType": "ethereum",
  "devdoc": {
    "kind": "dev",
    "methods": {},
    "version": 1
  },
  "userdoc": {
    "kind": "user",
    "methods": {},
    "version": 1
  }
}